S01700004763634170706C69636174696F6E382E7372656354
S11300000C94D7000C94F4000C94F4000C94F400B9
S11300100C94F4000C94F4000C94F4000C94F4008C
S11300200C94F4000C94F4000C94F4000C94F4007C
S11300300C94F4000C94F4000C94F4000C94F4006C
S11300400C94F4000C94F4000C94E5020C94C70294
S11300500C94F4000C94F4000C94F4000C94F4004C
S11300600C94F4000C94F4000C94F4000C94F4003C
S11300700C941E030C9400030C94F4000C94F400F0
S11300800C94F4000C94F4000C94F4000C94F4001C
S11300900C94F4000C94F4000C94F4000C94F4000C
S11300A00C94F4000C94F4000C94F4000C94F400FC
S11300B00C94F40000407A10F35A00A0724E180910
S11300C00010A5D4E80000E87648170000E40B54BB
S11300D0020000CA9A3B000000E1F505000080968A
S11300E09800000040420F000000A08601000000BC
S11300F0102700000000E803000000006400000076
S113010000000A00000000000100000000002C763E
S1130110D888DC674F0823DFC1DFAE59E1B1B79659
S1130120E5E3E453C63AE651997696E8E6C28426B6
S1130130EB898C9B62ED407C6FFCEFBC9C9F40F292
S1130140BAA56FA5F490055A2AF75C936B6CF9670E
S11301506DC11BFCE0E40D47FEF520E6B500D0EDD3
S1130160902E0300943577050080841E080000203B
S11301704E0A000000C80C333333330F986E1283D9
S11301801141EF8D2114893BE65516CFFEE6DB18AD
S1130190D1844B381BF77C1D901DA4BBE424203272
S11301A084725E228100C9F124ECA1E53D2711246B
S11301B01FBECFEFD8E0DEBFCDBF11E0A0E0B1E0BD
S11301C0EEEDFDE002C005900D92A633B107D9F71C
S11301D021E0A6E3B1E001C01D92A43CB207E1F71F
S11301E00E9427010C94ED060C9400001F93CF93FA
S11301F0DF93EC010E946E01882329F18CEC0E94AC
S1130200C40184E40E94C4012FEF8EE994E22150DA
S113021080409040E1F700C000000E946E018823F6
S113022091F08CEC0E94C4018EEB0E94C4010E94E8
S1130230DA01182F0E94DA0190E0982F8827812B89
S11302409983888381E0DF91CF911F910895CF93A3
S1130250DF9300D0CDB7DEB788E08093C40010925E
S1130260C50088E98093C100EEEBF1E080E091E005
S1130270938382839183808378948EE091E00E94BB
S11302805404CE0101960E94F600892BA9F06981DD
S11302907A81072E000C880B990B0E943B0320E007
S11302A030E040E85DE30E9476030E941F0284E28E
S11302B091E00E94100208C087E291E00E941002BF
S11302C084E291E00E9410022FE382E49FE0215037
S11302D080409040E1F700C00000D3CF8AB1846031
S11302E08AB98BB18B7F8BB98FE797E00197F1F7D0
S11302F000C000008AB18B7F8AB9E7E1F1E0319751
S1130300F1F700C0000099B19470E7E6F6E0319788
S1130310F1F700C0000081E0911180E008959AB1E6
S113032094609AB99BB19B7F9BB99AE09A95F1F737
S113033000C0882319F08AB18B7F8AB98FEE90E0D0
S11303400197F1F700C000008AB18B7F8AB9089544
S11303508AB184608AB98BB18B7F8BB98AE08A9524
S1130360F1F700C08AB18B7F8AB9E5E3EA95F1F72A
S1130370000089B182FB882780F9E7ECF0E031972F
S1130380F1F700C000000895CF93DF93D82FC0E0A9
S11303900CC081E090E00C2E02C0880F991F0A94D3
S11303A0E2F78D230E948F01CF5FC83090F3DF9175
S11303B0CF910895CF93DF93C0E0D0E00EC00E94A8
S11303C0A801882349F081E090E00C2E02C0880F38
S11303D0991F0A94E2F7D82BCF5FC83080F38D2F92
S11303E0DF91CF910895909179019F5F9F71209142
S11303F057019217E1F3E92FF0E0E256FE4F8083B4
S11304002FB7F89481E008C090937901E1ECF0E013
S113041080818062808380E08111F6CF2FBF0895B0
S1130420CF93DF93FC0103C00E94F301FE01EF01AF
S1130430219680818111F8CFDF91CF9108950F9398
S11304401F93CF93DF93CDB7DEB760970FB6F894C1
S1130450DEBF0FBECDBF8E010F5F1F4F26E04FE002
S11304600E943404F80101C0319680818032E1F3A6
S1130470CF010E94100260960FB6F894DEBF0FBE43
S1130480CDBFDF91CF911F910F91089590919D0160
S11304909F5F9F7120919B019217E1F3E92FF0E098
S11304A0E75AFE4F80832FB7F89481E008C09093F9
S11304B09D01E9ECF0E080818062808380E081111D
S11304C0F6CF2FBF0895CF93C82FFB018485958560
S11304D0019749F0CA3019F48DE00E94F3018C2F82
S11304E00E94F30108C0CA3019F48DE00E9446024C
S11304F08C2F0E94460280E090E0CF910895809175
S1130500580190919A01891761F08F5F8F71E82FDC
S1130510F0E0EA5CFE4F908180935801892F90E0CF
S113052008958FEF9FEF08958091560190919C015B
S1130530891761F08F5F8F71E82FF0E0E658FE4F66
S1130540908180935601892F90E008958FEF9FEF5B
S11305500895CF93DF93FC0184859585019751F02D
S11305600E947F02EC019923DCF30E94F301CE0187
S1130570992709C00E949402EC019923DCF30E949C
S11305804602CE0199279927DF91CF9108950F93C1
S11305900FB7EF93FF93E0915701F0917901E39541
S11305A0EF71EF1305C0F091C100FF7DF093C1001E
S11305B0E0935701F0E0E256FE4FE081E093C6007D
S11305C0FF91EF910FBF0F9118950F930FB79F9362
S11305D09091C600EF93FF93E0919A01F091580136
S11305E0E395EF71FE1731F0E0939A01F0E0EA5CD5
S11305F0FE4F9083FF91EF919F910FBF0F9118953C
S11306000F930FB7EF93FF93E0919B01F0919D013E
S1130610E395EF71EF1305C0F091C900FF7DF093EE
S1130620C900E0939B01F0E0E75AFE4FE081E093BC
S1130630CE00FF91EF910FBF0F9118950F930FB755
S11306409F939091CE00EF93FF93E0919C01F091E2
S11306505601E395EF71FE1731F0E0939C01F0E051
S1130660E658FE4F9083FF91EF919F910FBF0F913A
S11306701895E89409C097FB3EF490958095709581
S113068061957F4F8F4F9F4F9923A9F0F92F96E9DA
S1130690BB279395F695879577956795B795F1114F
S11306A0F8CFFAF4BB0F11F460FF1BC06F5F7F4FEC
S11306B08F4F9F4F16C0882311F096E911C07723FE
S11306C021F09EE8872F762F05C0662371F096E807
S11306D0862F70E060E02AF09A95660F771F881FD6
S11306E0DAF7880F9695879597F908950E948903FC
S11306F00C94FA030E94EC0338F00E94F30320F0F8
S1130700952311F00C94E3030C94E90311240C9445
S11307102E040E940B0470F3959FC1F3950F50E0D3
S1130720551F629FF001729FBB27F00DB11D639F9F
S1130730AA27F00DB11DAA1F649F6627B00DA11D45
S1130740661F829F2227B00DA11D621F739FB00DEB
S1130750A11D621F839FA00D611D221F749F33275B
S1130760A00D611D231F849F600D211D822F762FF4
S11307706A2F11249F5750409AF0F1F088234AF0D1
S1130780EE0FFF1FBB1F661F771F881F915050403D
S1130790A9F79E3F510580F00C94E3030C942E04BA
S11307A05F3FE4F3983ED4F3869577956795B795C4
S11307B0F795E7959F5FC1F7FE2B880F911D9695DE
S11307C0879597F9089597F99F6780E870E060E04E
S11307D008959FEF80EC089500240A9416161706D6
S11307E018060906089500240A941216130614061E
S11307F005060895092E0394000C11F4882352F081
S1130800BB0F40F4BF2B11F460FF04C06F5F7F4F38
S11308108F4F9F4F089557FD9058440F551F59F01F
S11308205F3F71F04795880F97FB991F61F09F3FD9
S113083079F087950895121613061406551FF2CF02
S11308404695F1DF08C0161617061806991FF1CF52
S113085086957105610508940895E894BB27662779
S11308607727CB0197F90895EF920F931F93CF93B6
S1130870DF93E80147FD02C034E001C034E1042EF7
S1130880000C550B57FF03C0519541955109E32EB8
S1130890022F242FAE010E948404CE01DF91CF9158
S11308A01F910F91EF9008950F931F93CF93DF93B0
S11308B0E091C001F091C101238121FF1BC08C0193
S11308C0D0E0C0E0F80181918F016091C001709186
S11308D0C101DB011896ED91FC911997882331F041
S11308E00995892B79F3DFEFCFEFECCF8AE00995F7
S11308F0892B19F08FEF9FEF02C08D2F9C2FDF9172
S1130900CF911F910F910895A9E0B0E0EAE8F4E0D7
S11309100C94BC066A01122FB02E2BE3201720F092
S1130920FF24F394F00E02C02CE3F22E0F2D27E0E7
S1130930AE014F5F5F4F0E94DE05BC014981842FE9
S11309408970813031F0E1FC06C0E0FE06C090E21F
S113095005C09DE203C09BE201C090E05E2D507192
S113096043FF3CC0911102C083E001C084E08117C1
S113097018F4212F281B01C020E051110BC0F601EF
S1130980822F30E2882319F031938150FBCFC20EBD
S1130990D11C20E0992329F0D6019C93F6013196CD
S11309A06F01C6010396E2FE0AC03EE4D6013C9301
S11309B041E411964C93119712963C9306C03EE67F
S11309C0F601308341E641833283FC01322F40E259
S11309D0332309F442C041933150FACF42FF44C05B
S11309E0911102C083E001C084E0811718F4212F23
S11309F0281B01C020E051110BC0F601822F30E208
S1130A00882319F031938150FBCFC20ED11C20E012
S1130A10992329F0D6019C93F60131966F01C60102
S1130A200396E2FE0BC039E4D6013C933EE41196F2
S1130A303C93119736E412963C9307C039E6F601CD
S1130A4030833EE6318336E63283FC01322F40E2C6
S1130A50332319F041933150FBCFFC01E20FF11D18
S1130A6010828EEF9FEFA6C021E030E0911102C00A
S1130A7020E030E0161617061CF4FB01319602C084
S1130A80E1E0F0E02E0F3F1FBB2021F0EB2DF0E062
S1130A90319602C0E0E0F0E02E0F3F1FE12FF0E0BE
S1130AA02E173F071CF4121B212F01C020E08E2DAE
S1130AB0887159F4F601822F30E2882319F03193BA
S1130AC08150FBCFC20ED11C20E0992329F0D6011E
S1130AD09C93F60131966F0151110BC0F601822FE0
S1130AE090E3882319F091938150FBCFC20ED11C5F
S1130AF020E00F2D060F9A81342F307144FF03C07C
S1130B00913309F40150101624F4093018F008E068
S1130B1001C001E0AB0177FF02C040E050E0FB01FF
S1130B20E41BF50BA1E0B0E0AC0FBD1FEA0FFB1F07
S1130B308EE2A82E4B01801A91080B2D10E011951E
S1130B40019511094F3FBFEF5B0721F4D601AC9229
S1130B5011966D01641775072CF08416950614F42C
S1130B60818101C080E3415051093196D60111962B
S1130B707D014017510724F0D6018C936701E2CF21
S1130B806417750739F4963320F4953319F4311149
S1130B9001C081E3F6018083F701822F90E288236C
S1130BA019F091938150FBCFF701E20FF11D1082F0
S1130BB080E090E02996ECE00C94D806283008F008
S1130BC027E03327DA01990F311D87FD91600096E4
S1130BD06105710539F432602E5F3D9330E32A9547
S1130BE0E1F708959F3F30F080387105610509F001
S1130BF03C5F3C5F3D93913008F08068911DDF932A
S1130C00CF931F930F93FF92EF92192F987F96958E
S1130C10E92F96959695E90FFF27E25FFE4F9927F6
S1130C203327EE24FF24A701E701059008940794D5
S1130C3028F4360FE71EF81E491F511D660F771F53
S1130C40881F991F0694A1F70590079428F4E70ECE
S1130C50F81E491F561FC11D770F881F991F661F55
S1130C600694A1F70590079428F4F80E491F561F1F
S1130C70C71FD11D880F991F661F771F0694A1F700
S1130C800590079420F4490F561FC71FD81F990FCA
S1130C90661F771F881F0694A9F784911095177013
S1130CA041F0D695C79557954795F794E7941A95CB
S1130CB0C1F7E4EBF0E068941590159135916591D6
S1130CC0959105907FE27395E118F10A430B560B59
S1130CD0C90BD009C0F7E10CF11E431F561FC91FF1
S1130CE0D01D7EF4703311F48A95E6CFE894015058
S1130CF030F0080F0AF40027021708F4202F239578
S1130D00022F7A3328F079E37D932A95E9F710C00E
S1130D107D932A9589F60694979567953795179547
S1130D201794E118F10A430B560BC90BD00998F03C
S1130D3023957E9173957A3308F070E37C932013A6
S1130D40B8F77E9170617D9330F0839571E37D9364
S1130D5070E32A95E1F71124EF90FF900F911F9112
S1130D60CF91DF91992787FD909508952F923F9217
S1130D704F925F926F927F928F929F92AF92BF92A7
S1130D80CF92DF92EF92FF920F931F93CF93DF9353
S1130D90CDB7DEB7CA1BDB0B0FB6F894DEBF0FBEB0
S1130DA0CDBF09942A88398848885F846E847D84FD
S1130DB08C849B84AA84B984C884DF80EE80FD80FF
S1130DC00C811B81AA81B981CE0FD11D0FB6F89475
S1110DD0DEBF0FBECDBFED010895F894FFCF36
S1130DDE00000003000000006302A9020000556138
S1130DEE72742073657420757020636F72726563FC
S1130DFE746C79000D0A00436F73206E6965207060
S1090E0E796B6C6F00001B
S9030000FC
