:100000000C94E1000C94FE000C94FE000C94FE0095
:100010000C94FE000C94FE000C94FE000C94FE0068
:100020000C94FE000C94FE000C94FE000C946906E7
:100030000C94FE000C94FE000C94FE000C94FE0048
:100040000C94FE000C94FE000C94B5080C949708D8
:100050000C94FE000C94FE000C94FE000C94FE0028
:100060000C94FE000C94FE000C94FE000C94FE0018
:100070000C94EE080C94D0080C94FE000C94FE0036
:100080000C94FE000C94FE000C94FE000C94FE00F8
:100090000C94FE000C94FE000C94FE000C94FE00E8
:1000A0000C94FE000C94FE000C94FE000C94FE00D8
:1000B0000C94FE001C06A705B405C105CE05DB05A2
:1000C000E805F50502060F0600407A10F35A00A075
:1000D000724E18090010A5D4E80000E87648170011
:1000E00000E40B54020000CA9A3B000000E1F50551
:1000F000000080969800000040420F000000A0869B
:1001000001000000102700000000E80300000000CC
:100110006400000000000A00000000000100000070
:1001200000002C76D888DC674F0823DFC1DFAE598A
:10013000E1B1B796E5E3E453C63AE651997696E81D
:10014000E6C28426EB898C9B62ED407C6FFCEFBCA1
:100150009C9F40F2BAA56FA5F490055A2AF75C93CC
:100160006B6CF9676DC11BFCE0E40D47FEF520E602
:10017000B500D0ED902E0300943577050080841EE5
:10018000080000204E0A000000C80C333333330F40
:10019000986E12831141EF8D2114893BE65516CFDD
:1001A000FEE6DB18D1844B381BF77C1D901DA4BBE9
:1001B000E424203284725E228100C9F124ECA1E59E
:1001C0003D2711241FBECFEFD8E0DEBFCDBF11E029
:1001D000A0E0B1E0E2EDFEE102C005900D92A63490
:1001E000B107D9F721E0A6E4B1E001C01D92A93F13
:1001F000B207E1F70E94D4060C94670F0C9400003C
:10020000CF93DF93C82F0E9472058CEE0E947E056B
:100210008C2F0E947E050E9472058DEE0E947E0545
:100220000E948805D82F0E949205C82F0E947A0547
:100230008C2F90E0982F88278D2BDF91CF910895F8
:100240000E9400010895CF93DF9388E80E94000187
:10025000CAE4D1E0998388838AE80E9420019B83C5
:100260008A838CE80E9420019D838C838EE80E9403
:1002700000019F838E8380E90E94200199878887EF
:1002800082E90E9420019B878A8784E90E942001DD
:100290009D878C8786E90E9420019F878E8788E949
:1002A0000E942001998B888B8AE90E9420019B8BF8
:1002B0008A8B8CE90E9420019D8B8C8B8EE90E9499
:1002C00020019F8B8E8B0E9472058CEE0E947E0512
:1002D00084EF0E947E0587E20E947E050E947A05D7
:1002E0000E9472058CEE0E947E0585EF0E947E05BD
:1002F00080E00E947E050E947A0583ED90E30197DD
:10030000F1F700C00000DF91CF910895AF92BF9246
:10031000CF92DF92EF92FF920F931F93CF93DF93D1
:10032000EC017B010E9472058CEE0E947E0587EF36
:100330000E947E050E9472058DEE0E947E050E943D
:100340008805A82E0E948805B82E0E948805C82E10
:100350000E948805D82E0E948805082F0E949205C9
:10036000182F0E947A05E114F10489F14A2D50E01A
:1003700060E070E0DB01CA01072E7CE0880F991F66
:10038000AA1FBB1F7A95D1F7702D4B2D50E060E06E
:1003900070E0440F551F661F771F440F551F661FDF
:1003A000771F440F551F661F771F440F551F661F89
:1003B000771F482B592B6A2B7B2BC694C694C69467
:1003C000C6944C29F701408351836283738320973D
:1003D00071F18D2D90E0A0E0B0E0AC01BD01032EE5
:1003E0003CE0440F551F661F771F3A95D1F7302D1B
:1003F000802F90E0A0E0B0E0880F991FAA1FBB1FDC
:10040000880F991FAA1FBB1F880F991FAA1FBB1F08
:10041000880F991FAA1FBB1F842B952BA62BB72BC8
:1004200012951F70812B88839983AA83BB83DF91E8
:10043000CF911F910F91FF90EF90DF90CF90BF90E1
:10044000AF9008954F925F926F927F928F929F929A
:10045000AF92BF92CF92DF92EF92FF92CF93DF9352
:1004600000D000D0CDB7DEB760E070E0CE010196DD
:100470000E948601C980DA80EB80FC80B701A6016A
:10048000689412F875956795579547951694D1F726
:10049000EAE4F1E040805180612C712CD301C2016B
:1004A000880F991FAA1FBB1F9A01AB01281B390B8C
:1004B0004A0B5B0BA281B3810E94350B4B015C019F
:1004C000072E7BE0B594A794979487947A95D1F7FB
:1004D000702DD701C601689413F8B595A795979527
:1004E00087951694D1F7BC01CD0164197509860969
:1004F00097099B01AC010E94000B9B01AC01012EEE
:100500001CE055954795379527951A95D1F7102DED
:10051000A481B5810E94350BDC01CB01072E7EE062
:10052000B595A795979587957A95D1F7702D880DF4
:10053000991DAA1DBB1D8093460190934701A0936E
:100540004801B09349016C017D01CC0CDD1CEE1C0F
:10055000FF1CCC0CDD1CEE1CFF1C8C0D9D1DAE1D6C
:10056000BF1D80589F4FAF4FBF4F692F7A2F8B2FE2
:10057000992787FD9A950E94B90920E030E048EC60
:1005800052E40E9409090F900F900F900F90DF9195
:10059000CF91FF90EF90DF90CF90BF90AF909F9062
:1005A0008F907F906F905F904F9008952F923F9221
:1005B0004F925F926F927F928F929F92AF92BF9273
:1005C000CF92DF92EF92FF920F931F93CF93DF931F
:1005D000CDB7DEB76E970FB6F894DEBF0FBECDBFB6
:1005E000BE016B5F7F4FCE0101960E9486010E9483
:1005F00022028091460190914701A0914801B0915B
:1006000049016C017D01FF0CCC08DC2C7601282F00
:10061000392F4A2F5B2F6C2D7C2D8C2D9C2D345F18
:100620004140510961097109810991092B873C8772
:100630004D875E876F87788B282E392EA22EB32E9A
:10064000C42ED52EE62EF72E082F192F0E943D0B13
:10065000298B3A8B49875A876B8B7C8B8D8B9E8B32
:100660000F2EFAE44F2EF1E05F2EF02DD2015196BD
:10067000BC9051975096AC901B2D110F110BC12EB1
:10068000D12EE12EF12E012F0E943D0B2F8B388FA2
:10069000498F5A8F662E772E882E992EF201B784B5
:1006A000A6841B2D110F110BC12ED12EE12EF12E80
:1006B000012F2B853C854D855E856F857889822D40
:1006C000932D0E943D0B01E10E946D0CA22EB32ED2
:1006D000C42ED52EE62EF72E082F192F2F89388DF0
:1006E000498D5A8D662D772D882D992D0E94A40C49
:1006F000622E732E842E952EB62FA72F8F8B988F58
:10070000F20135852485932F990F990B492F592F85
:10071000692F792F892F03E20E946D0CA22EB32E30
:10072000C42ED52EE62EF72E082F192F262D372D65
:10073000482D592D6B2F7A2F8F89988D0E94A40CEC
:100740002F8B388F498F5A8F6B8F7C8F8D8F9E8F19
:10075000B384A2841B2D110F110BC12ED12EE12EBB
:10076000F12E012F29893A8949855A856B897C891F
:100770008D899E890E943D0B08E00E94860C298B82
:100780003A8B49875A87662E772E882E992ED2016A
:100790001996BC9019971896AC901B2D110F110B40
:1007A000C12ED12EE12EF12E012F2B853C854D85BA
:1007B0005E856F857889822D932D0E943D0B0CE01C
:1007C0000E946D0CA22EB32EC42ED52EE62EF72E2F
:1007D000082F192F29893A8949855A85662D772D41
:1007E000882D992D0E94A40C70588F4F9F4FF201B5
:1007F00026803780A22CB32CC12CD12CE12CF12CDB
:1008000000E010E00E943D0B01E20E94860C222EC7
:10081000332E442E552E662E772E882E992EA0E04C
:100820000E94B60C09F40BC14D815E816F81788501
:1008300080E090E0A0E1B0E0841B950BA60BB70B25
:100840006C017D01FF0CCC08DC2C7601282F392FA0
:100850004A2F5B2F6C2D7C2D8C2D9C2D0FE10E943F
:100860006D0CAF88B88CC98CDA8CEB8CFC8C0D8D40
:100870001E8D0E94AD0C0F2EF5E3AF2EF02D0F2E26
:10088000FCE0BF2EF02DC12CD12CE12CF12C00E08E
:1008900010E00E943D0BA22CB32CC42CD52CE62CCE
:1008A000F72C082D192D0E94980B2B873C874D871C
:1008B0005E876F87788B898B9A8B0F2EFAE44F2E89
:1008C000F1E05F2EF02DD2015796FC915797569686
:1008D000BC91BB8BEF2FEE0FEE0B0DE00E94860C50
:1008E000222E332E49875A87662E772E882E992EF0
:1008F000A22EB32EC42ED52EE62EF72E082F192F9A
:100900002B2F3F2F4E2F5E2F6E2F7E2F8E2F9E2F41
:100910000E943D0BA22EB32EC42ED52EE62EF72E0E
:10092000082F192F222D332D49855A85662D772DB5
:10093000882D992D0E943D0B09E10E94860C298784
:100940003A87342E252E6B8B7C8B8D8B9E8BF20100
:10095000B588A4881B2D110F110BC12ED12EE12EAD
:10096000F12E012F2B853C854D855E856F8578891D
:1009700089899A890E943D0B03E10E94860C622EB0
:10098000732E842E952EB62FA72FF82FE92F2B85A7
:100990003C854D855E856F85788989899A89A9848A
:1009A000BA84C32CD22CEB88FC880D891E890E9446
:1009B000A40CA22EB32EC42ED52EE62EF72E082F71
:1009C000192F262D372D482D592D6B2F7A2F8F2F2C
:1009D0009E2F0E94A40C08E00E94860C622E732EAB
:1009E000842E952EB62FA72F382E292EF20133896B
:1009F0002289932F990F990B492F592F692F792FFE
:100A0000892F04E00E946D0CA22EB32EC42ED52E89
:100A1000E62EF72E082F192F262D372D482D592D6C
:100A20006B2F7A2F832D922D0E94A40C0E94B10966
:100A300020E030E040E85BE30E94930A03C060E0FE
:100A400070E0CB016E960FB6F894DEBF0FBECDBF3F
:100A5000DF91CF911F910F91FF90EF90DF90CF909A
:100A6000BF90AF909F908F907F906F905F904F90CE
:100A70003F902F9008951F93CF93DF93EC010E9436
:100A80003E07882311F18CEC0E94940784E40E94B5
:100A900094078FE19EE40197F1F700C000000E94E7
:100AA0003E07882391F08CEC0E9494078EEB0E9405
:100AB00094070E94AA07182F0E94AA0790E0982F77
:100AC0008827812B9983888381E0DF91CF911F91C3
:100AD00008951092B90088E48093B80084E0809370
:100AE000BC00089584EA8093BC008091BC008823F8
:100AF000E4F7089584E98093BC0008958093BB00D7
:100B000084E88093BC008091BC008823E4F70895BA
:100B100084EC8093BC008091BC008823E4F7809132
:100B2000BB00089584E88093BC008091BC008823BA
:100B3000E4F78091BB00089590E0FC01F097EA3063
:100B4000F10508F086C0E65AFF4F0C94240B8FEC99
:100B500090E090936A01809369018FEF90E0909309
:100B60006801809367017FC087E290E090936A01FB
:100B7000809369018DEF90E0909368018093670105
:100B800072C087E890E090936A01809369018DEFCD
:100B900090E0909368018093670165C08FEC90E0CE
:100BA00090936A01809369018CEF90E090936801C3
:100BB0008093670158C087E990E090936A01809321
:100BC00069018CEF90E090936801809367014BC0BE
:100BD00087E190E090936A01809369018CEF90E047
:100BE00090936801809367013EC087EC90E09093FA
:100BF0006A01809369018FEF90E090936801809380
:100C0000670131C087E090E090936A0180936901A9
:100C10008CEF90E0909368018093670124C087E88F
:100C200090E090936A01809369018CEF90E090933B
:100C300068018093670117C087E090E090936A0194
:100C4000809369018EEF90E0909368018093670133
:100C50000AC08FEF90E090936A01809369019093AE
:100C60006801809367018091690190916A010895FC
:100C700084B1836084B98AB1886F8AB987B18F6083
:100C800087B90895CF93C62F0E949C058091670174
:100C900085B9809169018BB9C8B98FE39FE101974C
:100CA000F1F700C00000CF910895E1E8F0E0808105
:100CB0008860808380818560808384E89EE1909352
:100CC000890080938800EFE6F0E080818260808375
:100CD00008951F920F920FB60F9211248F9381E007
:100CE000809364018F910F900FBE0F901F90189505
:100CF0008F929F92AF92BF92CF92DF92EF92FF922C
:100D00000E9422024B015C010E94D6026B017C0111
:100D10008EE091E00E94E007C501B4010E94EF0758
:100D200085E191E00E94E0078AE191E00E94E007FE
:100D3000C701B6010E94EF0782E291E00E94E0073E
:100D400085E691E00E943B05882309F160916501E9
:100D500070916601072E000C880B990B0E94B9094F
:100D600020E030E040E85DE30E94930A6B017C01E3
:100D70000E94EF0787E291E00E94E007C701B601F9
:100D80000E947B09709363016093620104C08AE250
:100D900091E00E94E007FF90EF90DF90CF90BF902E
:100DA000AF909F908F9008950E9469050E94230143
:100DB00088E08093C4001092C50088E98093C10048
:100DC000E3EFF1E080E091E093838283918380837D
:100DD0000E9438060E945506789489E391E00E94AB
:100DE000050D80916401813021F40E9478061092F3
:100DF0006401809162019091630168EE73E00E944A
:100E0000100B462F809162019091630164E670E0BF
:100E10000E94100BCB012AE030E0B9010E94100BB8
:100E2000182F8091620190916301B9010E94100B0B
:100E3000CB01B9010E94100BD82F809162019091D3
:100E40006301B9010E94100BC82F6EEF70E080E3C0
:100E5000840F0E9442066DEF70E080E3810F0E94D4
:100E600042066BEF70E080E38D0F0E94420667EF51
:100E700070E080E38C0F0E944206B3CF8AB1846099
:100E80008AB98BB18B7F8BB98FE797E00197F1F728
:100E900000C000008AB18B7F8AB9E7E1F1E03197A9
:100EA000F1F700C0000099B19470E7E6F6E03197E1
:100EB000F1F700C0000081E0911180E008959AB13F
:100EC00094609AB99BB19B7F9BB99AE09A95F1F790
:100ED00000C0882319F08AB18B7F8AB98FEE90E029
:100EE0000197F1F700C000008AB18B7F8AB908959D
:100EF0008AB184608AB98BB18B7F8BB98AE08A957D
:100F0000F1F700C08AB18B7F8AB9E5E3EA95F1F782
:100F1000000089B182FB882780F9E7ECF0E0319787
:100F2000F1F700C000000895CF93DF93D82FC0E001
:100F30000CC081E090E00C2E02C0880F991F0A942B
:100F4000E2F78D230E945F07CF5FC83090F3DF91F7
:100F5000CF910895CF93DF93C0E0D0E00EC00E9400
:100F60007807882349F081E090E00C2E02C0880FBA
:100F7000991F0A94E2F7D82BCF5FC83080F38D2FEA
:100F8000DF91CF9108959091AE019F5F9F71209165
:100F90008C019217E1F3E92FF0E0ED52FE4F8083D0
:100FA0002FB7F89481E008C09093AE01E1ECF0E037
:100FB00080818062808380E08111F6CF2FBF089509
:100FC000CF93DF93FC0103C00E94C307FE01EF0132
:100FD000219680818111F8CFDF91CF9108950F93F1
:100FE0001F93CF93DF93CDB7DEB760970FB6F8941A
:100FF000DEBF0FBECDBF8E010F5F1F4F26E04FE05B
:101000000E94E50CF80101C0319680818032E1F345
:10101000CF010E94E00760960FB6F894DEBF0FBEC6
:10102000CDBFDF91CF911F910F9108959091D20183
:101030009F5F9F712091D0019217E1F3E92FF0E0BB
:10104000E257FE4F80832FB7F89481E008C0909359
:10105000D201E9ECF0E080818062808380E0811140
:10106000F6CF2FBF0895CF93C82FFB0184859585B8
:10107000019749F0CA3019F48DE00E94C3078C2F04
:101080000E94C30708C0CA3019F48DE00E941608F8
:101090008C2F0E94160880E090E0CF9108958091F7
:1010A0008D019091CF01891761F08F5F8F71E82FCB
:1010B000F0E0E559FE4F908180938D01892F90E0FB
:1010C00008958FEF9FEF089580918B019091D1014A
:1010D000891761F08F5F8F71E82FF0E0E155FE4FC7
:1010E000908180938B01892F90E008958FEF9FEF7F
:1010F0000895CF93DF93FC0184859585019751F086
:101100000E944F08EC019923DCF30E94C307CE0133
:10111000992709C00E946408EC019923DCF30E941E
:101120001608CE0199279927DF91CF9108950F9343
:101130000FB7EF93FF93E0918C01F091AE01E3952F
:10114000EF71EF1305C0F091C100FF7DF093C10076
:10115000E0938C01F0E0ED52FE4FE081E093C60099
:10116000FF91EF910FBF0F9118950F930FB79F93BA
:101170009091C600EF93FF93E091CF01F0918D0124
:10118000E395EF71FE1731F0E093CF01F0E0E55900
:10119000FE4F9083FF91EF919F910FBF0F91189594
:1011A0000F930FB7EF93FF93E091D001F091D2012D
:1011B000E395EF71EF1305C0F091C900FF7DF09347
:1011C000C900E093D001F0E0E257FE4FE081E093E8
:1011D000CE00FF91EF910FBF0F9118950F930FB7AE
:1011E0009F939091CE00EF93FF93E091D101F09106
:1011F0008B01E395EF71FE1731F0E093D101F0E040
:10120000E155FE4F9083FF91EF919F910FBF0F919A
:1012100018950E941D090C94590A0E94520A58F010
:101220000E944B0A40F029F45F3F29F00C94320AE7
:1012300051110C948D0A0C94380A0E946A0A68F3C2
:101240009923B1F3552391F3951B550BBB27AA277F
:1012500062177307840738F09F5F5F4F220F331FB9
:10126000441FAA1FA9F335D00E2E3AF0E0E832D081
:1012700091505040E695001CCAF72BD0FE2F29D084
:10128000660F771F881FBB1F261737074807AB0756
:10129000B0E809F0BB0B802DBF01FF2793585F4FCB
:1012A0003AF09E3F510578F00C94320A0C948D0A66
:1012B0005F3FE4F3983ED4F3869577956795B795AD
:1012C000F7959F5FC9F7880F911D9695879597F9B8
:1012D0000895E1E0660F771F881FBB1F6217730731
:1012E0008407BA0720F0621B730B840BBA0BEE1F46
:1012F00088F7E09508950E9482096894B1110C94D2
:101300008D0A08950E94720A88F09F5798F0B92FAD
:101310009927B751B0F0E1F0660F771F881F991F2A
:101320001AF0BA95C9F714C0B13091F00E948C0A36
:10133000B1E008950C948C0A672F782F8827B85F46
:1013400039F0B93FCCF3869577956795B395D9F782
:101350003EF490958095709561957F4F8F4F9F4F8C
:10136000089597FB16F40E943B0A0C94F509E89443
:1013700009C097FB3EF490958095709561957F4FDD
:101380008F4F9F4F9923A9F0F92F96E9BB2793958B
:10139000F695879577956795B795F111F8CFFAF49B
:1013A000BB0F11F460FF1BC06F5F7F4F8F4F9F4FCC
:1013B00016C0882311F096E911C0772321F09EE82A
:1013C000872F762F05C0662371F096E8862F70E090
:1013D00060E02AF09A95660F771F881FDAF7880F6A
:1013E0009695879597F90895E894F92F96EBFF2342
:1013F00081F0121613061406440B9395F695879503
:101400007795679557954040FF23B9F71BC09927FB
:101410000895882351F49850D2F7872B762F652FA3
:10142000542F432F322F20E0B1F312161306140667
:10143000440B88233AF09A95440F551F661F771F77
:10144000881FCAF755234AF4440F551F11F460FF53
:1014500004C06F5F7F4F8F4F9F4F880F9695879582
:1014600097F9089597F99F6780E870E060E0089524
:101470009FEF80EC089590958095709560955095BC
:101480004095309521953F4F4F4F5F4F6F4F7F4FA6
:101490008F4F9F4F089500240A94161617061806BA
:1014A0000906089500240A94121613061406050668
:1014B0000895092E0394000C11F4882352F0BB0FF9
:1014C00040F4BF2B11F460FF04C06F5F7F4F8F4F5C
:1014D0009F4F089557FD9058440F551F59F05F3F97
:1014E00071F04795880F97FB991F61F09F3F79F046
:1014F00087950895121613061406551FF2CF4695C8
:10150000F1DF08C0161617061806991FF1CF869549
:101510007105610508940895E894BB27662777272D
:10152000CB0197F908950E94A60A0C94590A0E94CB
:101530004B0A38F00E94520A20F0952311F00C94C7
:10154000320A0C94380A11240C948D0A0E946A0AFB
:1015500070F3959FC1F3950F50E0551F629FF00106
:10156000729FBB27F00DB11D639FAA27F00DB11D1F
:10157000AA1F649F6627B00DA11D661F829F2227A8
:10158000B00DA11D621F739FB00DA11D621F839F2F
:10159000A00D611D221F749F3327A00D611D231F05
:1015A000849F600D211D822F762F6A2F11249F5753
:1015B00050409AF0F1F088234AF0EE0FFF1FBB1F56
:1015C000661F771F881F91505040A9F79E3F510515
:1015D00080F00C94320A0C948D0A5F3FE4F3983E3D
:1015E000D4F3869577956795B795F795E7959F5FBF
:1015F000C1F7FE2B880F911D9695879597F9089551
:10160000DB018F939F930E942A0BBF91AF91A29F02
:10161000800D911DA39F900DB29F900D11240895F0
:1016200097FB072E16F4009407D077FD09D00E948F
:10163000C20C07FC05D03EF4909581959F4F08950C
:10164000709561957F4F0895EE0FFF1F0590F491FF
:10165000E02D09940E94D60CA59F900DB49F900D8B
:10166000A49F800D911D11240895B7FF0C942A0B9F
:101670000E942A0B821B930B0895DF93CF931F9335
:101680000F939A9DF02D219FF00D8B9DF00D8A9D5B
:10169000E02DF10D039FF00D029FE00DF11D4E9D19
:1016A000E00DF11D5E9DF00D4F9DF00D7F936F934A
:1016B000BF92AF925F934F93D5010E94D60C8B01DE
:1016C000AC01D7010E94D60CEB01E80FF91FD6013F
:1016D0000E948D0B2F913F91D6010E94D60CC60F10
:1016E000D71FE81FF91FAF91BF910E948D0B2F915B
:1016F0003F910E94D60CC60FD71FE81FF91FD601D5
:101700000E94D60CE60FF71F9801BE01CF011124ED
:101710000F911F91CF91DF9108950E94D60C460F33
:10172000571FC81FD91F08F431960895689401C047
:10173000E894F92FF12B12F00C94CA0BA0E0B0E062
:10174000E4EAFBE00C943C0C092E059422F40E9480
:10175000260C112392F4F0E80F26FFEFE094F094AA
:1017600000951095B094C094D094A194BF0ACF0A6C
:10177000DF0AEF0AFF0A0F0B1F0B0E94D50B07FCB5
:101780000E94260CCDB7DEB7ECE00C94580C6894A0
:1017900001C0E8948F929F92CF93DF930E94D50B64
:1017A000DF91CF919F908F90089588249924F40120
:1017B000E401B0E49F93AA279A158B049C04ED05DD
:1017C000FE05CF05D007A10798F4AD2FDC2FCF2F52
:1017D000FE2FE92D982C892E982F872F762F652F95
:1017E000542F432F322F2227B85031F7BF9127C0F3
:1017F0001B2EBF91BB27220F331F441F551F661F8F
:10180000771F881F991F881C991CEE1FFF1FCC1F74
:10181000DD1FAA1FBB1F8A149B04EC05FD05CE0526
:10182000DF05A007B10748F08A189B08EC09FD09FD
:10183000CE09DF09A00BB10B21601A94E1F62EF45A
:101840009401AF01BE01CD01000C08956095709523
:101850008095909530954095509521953F4F4F4FED
:101860005F4F6F4F7F4F8F4F9F4F08952F923F9243
:101870004F925F926F927F928F929F92AF92BF92A0
:10188000CF92DF92EF92FF920F931F93CF93DF934C
:10189000CDB7DEB7CA1BDB0B0FB6F894DEBF0FBEA9
:1018A000CDBF09942A88398848885F846E847D84F6
:1018B0008C849B84AA84B984C884DF80EE80FD80F8
:1018C0000C811B81AA81B981CE0FD11D0FB6F8946E
:1018D000DEBF0FBECDBFED0108950F93083090F02D
:1018E000982F872F762F652F542F432F322F2227A3
:1018F0000850F4CF220F331F441F551F661F771F58
:10190000881F991F0A95B2F70F91089597FB10F859
:10191000169400080F93083098F00850232F342FA6
:10192000452F562F672F782F892F902DF4CF0594B0
:101930009795879577956795579547953795279507
:101940000A95AAF70F9108952A0D3B1D4C1D5D1DA8
:101950006E1D7F1D801F911F08952A193B094C0998
:101960005D096E097F09800B910B08950024A7FD86
:1019700000942A1730054005500560057005800564
:1019800090050895AA1BBB1B51E107C0AA1FBB1FEE
:10199000A617B70710F0A61BB70B881F991F5A95FB
:1019A000A9F780959095BC01CD010895A29FB00143
:1019B000B39FC001A39F700D811D1124911DB29F83
:1019C000700D811D1124911D0895EF920F931F93A7
:1019D000CF93DF93E80147FD02C034E001C034E15A
:1019E000042E000C550B57FF03C05195419551092A
:1019F000E32E022F242FAE010E94350DCE01DF9180
:101A0000CF911F910F91EF9008950F931F93CF9354
:101A1000DF93E091F501F091F601238121FF1BC0D6
:101A20008C01D0E0C0E0F80181918F016091F50157
:101A30007091F601DB011896ED91FC9119978823BE
:101A400031F00995892B79F3DFEFCFEFECCF8AE006
:101A50000995892B19F08FEF9FEF02C08D2F9C2FD6
:101A6000DF91CF911F910F910895A9E0B0E0EBE3D2
:101A7000FDE00C943C0C6A01122FB02E2BE32017D2
:101A800020F0FF24F394F00E02C02CE3F22E0F2D71
:101A900027E0AE014F5F5F4F0E948F0EBC0149816E
:101AA000842F8970813031F0E1FC06C0E0FE06C071
:101AB00090E205C09DE203C09BE201C090E05E2D74
:101AC000507143FF3CC0911102C083E001C084E02B
:101AD000811718F4212F281B01C020E051110BC0E1
:101AE000F601822F30E2882319F031938150FBCF29
:101AF000C20ED11C20E0992329F0D6019C93F60157
:101B000031966F01C6010396E2FE0AC03EE4D6019B
:101B10003C9341E411964C93119712963C9306C066
:101B20003EE6F601308341E641833283FC01322FE9
:101B300040E2332309F442C041933150FACF42FFCF
:101B400044C0911102C083E001C084E0811718F401
:101B5000212F281B01C020E051110BC0F601822F5C
:101B600030E2882319F031938150FBCFC20ED11C93
:101B700020E0992329F0D6019C93F60131966F015C
:101B8000C6010396E2FE0BC039E4D6013C933EE465
:101B900011963C93119736E412963C9307C039E6B0
:101BA000F60130833EE6318336E63283FC01322F84
:101BB00040E2332319F041933150FBCFFC01E20F97
:101BC000F11D10828EEF9FEFA6C021E030E0911151
:101BD00002C020E030E0161617061CF4FB01319617
:101BE00002C0E1E0F0E02E0F3F1FBB2021F0EB2D03
:101BF000F0E0319602C0E0E0F0E02E0F3F1FE12F51
:101C0000F0E02E173F071CF4121B212F01C020E02B
:101C10008E2D887159F4F601822F30E2882319F055
:101C200031938150FBCFC20ED11C20E0992329F0C3
:101C3000D6019C93F60131966F0151110BC0F6014C
:101C4000822F90E3882319F091938150FBCFC20E2D
:101C5000D11C20E00F2D060F9A81342F307144FFE4
:101C600003C0913309F40150101624F4093018F020
:101C700008E001C001E0AB0177FF02C040E050E0A6
:101C8000FB01E41BF50BA1E0B0E0AC0FBD1FEA0FB8
:101C9000FB1F8EE2A82E4B01801A91080B2D10E03D
:101CA0001195019511094F3FBFEF5B0721F4D60154
:101CB000AC9211966D01641775072CF08416950689
:101CC00014F4818101C080E3415051093196D6015D
:101CD00011967D014017510724F0D6018C936701BE
:101CE000E2CF6417750739F4963320F4953319F46D
:101CF000311101C081E3F6018083F701822F90E268
:101D0000882319F091938150FBCFF701E20FF11D69
:101D1000108280E090E02996ECE00C94580C28307A
:101D200008F027E03327DA01990F311D87FD916014
:101D300000966105710539F432602E5F3D9330E302
:101D40002A95E1F708959F3F30F0803871056105CD
:101D500009F03C5F3C5F3D93913008F08068911D35
:101D6000DF93CF931F930F93FF92EF92192F987FDA
:101D70009695E92F96959695E90FFF27EE5DFE4F14
:101D800099273327EE24FF24A701E7010590089443
:101D9000079428F4360FE71EF81E491F511D660FE1
:101DA000771F881F991F0694A1F70590079428F4C0
:101DB000E70EF81E491F561FC11D770F881F991F78
:101DC000661F0694A1F70590079428F4F80E491FA2
:101DD000561FC71FD11D880F991F661F771F0694B6
:101DE000A1F70590079420F4490F561FC71FD81F6D
:101DF000990F661F771F881F0694A9F78491109585
:101E0000177041F0D695C79557954795F794E79485
:101E10001A95C1F7E8ECF0E06894159015913591AA
:101E20006591959105907FE27395E118F10A430B56
:101E3000560BC90BD009C0F7E10CF11E431F561F0A
:101E4000C91FD01D7EF4703311F48A95E6CFE89453
:101E5000015030F0080F0AF40027021708F4202F71
:101E60002395022F7A3328F079E37D932A95E9F7B9
:101E700010C07D932A9589F60694979567953795B6
:101E800017951794E118F10A430B560BC90BD009AB
:101E900098F023957E9173957A3308F070E37C93E4
:101EA0002013B8F77E9170617D9330F0839571E3D4
:101EB0007D9370E32A95E1F71124EF90FF900F9145
:101EC0001F91CF91DF91992787FD90950895F89400
:021ED000FFCF42
:101ED2000000000300000000330879080000546588
:101EE2006D703A200020430D0A0050726573733AF8
:101EF20020002050610D0A0D0A00426C61642044EA
:101F02005331384232300D0A0053797374656D20B3
:061F12007374617274009B
:00000001FF
